:100000000C94F6000C9413010C9413010C9413013E
:100010000C9413010C9413010C9413010C94130110
:100020000C9413010C9413010C947C040C94B704ED
:100030000C9413010C9413010C9413010C941301F0
:100040000C9413010C9413010C9413010C941301E0
:100050000C9413010C9413010C9413010C941301D0
:100060000C9413010C9413010C9413010C941301C0
:100070000C9413010C9413010C9413010C941301B0
:100080000C9413010C9413010C9413010C941301A0
:100090000C9413010C9413010C9413010C94130190
:1000A0000C9413010C9413010C94130110040D040F
:1000B0000A04070404040104FE03FB03F803F50328
:1000C000F203EF03EC03E903E603E303E003DD03DC
:1000D000DA03D703D403D103CE03CB03C803C5038C
:1000E000C203BF03BC03B903B603B303B003AD033C
:1000F000AA03A703A403A1039E039B0398039503EC
:1001000092038F038C0389038603830380037D039B
:100110007A037703740371036E036B03680365034B
:1001200062035F035C03590356035303500300014A
:10013000000062011200020000740143000300008D
:10014000B7010401030904BB011202030904CF0132
:100150001003030904E101080001C1120180360106
:1001600081361201000202000010C0167A0400015C
:100170000102030109024300020100C03209040028
:100180000001020201000524001001052401010103
:10019000042402060524060001070582031000401E
:1001A00009040100020A00000007050302400000E4
:1001B000070584024000000403090412034A002ECC
:1001C0000020004600690065006E00650000001018
:1001D000034D00610045007600410072004D0000B3
:1001E00000080334003100300000000011241FBE5D
:1001F000CFEFDAE0DEBFCDBF11E0A0E0B1E0ECE789
:10020000FDE002C005900D92A830B107D9F711E0CA
:10021000A8E0B1E001C01D92AC30B107E1F70E9447
:1002200015010C94BC060C9400002F923F924F9243
:100230005F926F927F928F929F92AF92BF92CF9276
:10024000DF92EF92FF921F93CF93DF936E9A6A9A99
:10025000729885B5877F85BD84B58D7F84BD84B553
:100260008E7F84BD85B5846085BD85B58D7F85BD58
:1002700085B5816085BD80E8809361001092610042
:10028000269A279A809181008B7F809381008091AC
:100290008100826080938100809181008E7F8093B5
:1002A0008100809181008061809381008091810034
:1002B00088608093810080918000826080938000BC
:1002C000809180008E7F809380008091800080628A
:1002D00080938000809180008F7E80938000809149
:1002E0008000886080938000809180008B7F809365
:1002F000800080E29EE4909387008093860088EEE1
:1003000093E0909389008093880090938B00809372
:100310008A000E9448020E9461028823E1F310E4EF
:10032000C4EAD6E060E4262E66E0362E54E1A52E1F
:1003300055E0B52E40EB842E44E0942E3CE4632E31
:1003400034E0732E2CEF422E28E0522E90E6E92E58
:1003500099E0F92E88EEC82E83E0D82E0E94800204
:100360008823E1F30E946402853731F480918A008A
:1003700090918B000A967BC0843631F480918A007C
:1003800090918B000A9773C0893731F480918A006D
:1003900090918B00C2966BC0833731F480918A00B4
:1003A00090918B00C29763C08B3629F4D0928B005A
:1003B000C0928A0060C0893629F4F0928B00E092E6
:1003C0008A0059C08D3629F450928B0040928A00E1
:1003D00052C0883641F1813329F470928B006092CB
:1003E0008A0049C0823329F490928B0080928A005F
:1003F00042C0833329F4B0928B00A0928A003BC0A4
:10040000843319F488E795E032C0853319F48CED14
:1004100095E02DC0863329F430928B0020928A001B
:100420002AC0873329F4D0938B00C0938A0023C05D
:10043000883319F488E097E01AC0893319F48CE600
:1004400097E015C0803319F480ED97E010C08B352C
:1004500031F480918A0090918B00019708C08D350E
:1004600009F07CCF80918A0090918B000196909347
:100470008B0080938A008EB181278EB980918A008B
:1004800090918B000E9458068AE00E94A00266CFDD
:1004900081E08093D70080EA8093D80082E089BD14
:1004A00009B400FEFDCF80E98093D8001092E000EF
:1004B00010920801109209018CE08093E200789478
:1004C00008958091080108959FB7F89480910801DC
:1004D000882339F083E08093E9008091E80085FD6E
:1004E00003C09FBF8FEF08952091F1008091E80035
:1004F00085FD03C08BE68093E8009FBF822F08959F
:100500009FB7F89480910801882329F083E08093B5
:10051000E9008091F2009FBF08958091080188232F
:1005200071F09FB7F89483E08093E9002BE602C056
:100530002093E8008091E80085FDFACF9FBF0895E1
:10054000482F809108018823D9F12FB7F89484E0CF
:100550008093E90080910B01882341F08091E800AD
:1005600085FD02C02FBF12C010920B019091E400D4
:10057000975E34E08091E80085FD13C02FBF809125
:10058000E400891729F481E080930B018FEF08952F
:10059000809108018823A1F02FB7F8943093E900E7
:1005A000E9CF4093F1008091E80085FD03C08AE324
:1005B0008093E80085E080930A012FBF80E00895D2
:1005C0008FEF0895282F80910801882351F09FB75D
:1005D000F89484E08093E9008091E80085FD03C0F1
:1005E0009FBF8FEF08952093F1008091E80085FD73
:1005F00003C08AE38093E80085E080930A019FBFEF
:1006000080E00895CF93DF93EC0180910801882367
:1006100009F41CC13FB7F89484E08093E90080910D
:100620000B01882309F407C18091E80085FD02C011
:100630003FBF0CC110920B01FEC09091E400975E89
:100640008091E80085FD13C03FBF8091E4008917C9
:1006500021F481E080930B01F9C080910801882387
:1006600009F4F4C03FB7F8945093E900E9CF8091C2
:10067000F2002A2F281B822F90E06817790708F4D0
:10068000262F822F90E08134910508F0C6C08A5A47
:100690009F4FFC01EE0FFF1F0590F491E02D099490
:1006A00089918093F10089918093F10089918093E1
:1006B000F10089918093F10089918093F1008991F3
:1006C0008093F10089918093F10089918093F100EA
:1006D00089918093F10089918093F10089918093B1
:1006E000F10089918093F10089918093F1008991C3
:1006F0008093F10089918093F10089918093F100BA
:1007000089918093F10089918093F1008991809380
:10071000F10089918093F10089918093F100899192
:100720008093F10089918093F10089918093F10089
:1007300089918093F10089918093F1008991809350
:10074000F10089918093F10089918093F100899162
:100750008093F10089918093F10089918093F10059
:1007600089918093F10089918093F1008991809320
:10077000F10089918093F10089918093F100899132
:100780008093F10089918093F10089918093F10029
:1007900089918093F10089918093F10089918093F0
:1007A000F10089918093F10089918093F100899102
:1007B0008093F10089918093F10089918093F100F9
:1007C00089918093F10089918093F10089918093C0
:1007D000F10089918093F10089918093F1008991D2
:1007E0008093F10089918093F10089918093F100C9
:1007F00089918093F10089918093F1008991809390
:10080000F10089918093F10089918093F1008991A1
:100810008093F10089918093F10089918093F10098
:100820008091E80085FD02C0B093E800621B710969
:1008300040930A0104C054E0A0E4BAE345E0611526
:10084000710509F0FACE3FBF80E001C08FEFDF9164
:10085000CF9108959FB7F89480910A01882341F0C1
:1008600084E08093E9008AE38093E80010920A0113
:100870009FBF089560910001709101018091020174
:1008800090910301089580910401089580910501DC
:100890000895809106010895809109010895382FE7
:1008A0009FB7F89480910801882339F022E02093C3
:1008B000E9008091E80085FD03C09FBF8FEF089598
:1008C00081EA8093F10080E28093F1001092F100C0
:1008D0001092F1001092F1001092F1002093F100BB
:1008E0001092F1003093F1001092F1008AE38093AE
:1008F000E8009FBF80E008951F920F920FB60F92FD
:1009000011248F939F938091E1001092E100982F22
:1009100083FF11C01092E90081E08093EB001092F8
:10092000EC0082E18093ED0088E08093F00010926B
:1009300008011092090192FF13C0809108018823D9
:1009400079F080910A01882359F0815080930A013F
:10095000882331F484E08093E9008AE38093E800FF
:100960009F918F910F900FBE0F901F9018951F921F
:100970000F920FB60F9211240F931F932F933F9353
:100980004F935F936F937F938F939F93AF93BF9397
:10099000EF93FF931092E9008091E80083FF3CC140
:1009A0004091F1003091F1008091F100682F70E0EA
:1009B0002091F100922F80E0682B792B8091F1003B
:1009C000A82FB0E02091F100922F80E0A82BB92B46
:1009D0001091F1000091F10082EF8093E800363031
:1009E00009F05AC025E331E0A90145505040F90112
:1009F0003797859194918617970701F5FA018591AC
:100A000094918A179B07D1F49A012E5F3F4FF90109
:100A1000659174912E5F3F4FF9014491212F30E091
:100A2000902F80E0282B392B2F3F310519F010F043
:100A30002FEF30E0241758F4422F09C0295F3F4FB1
:100A4000495F5F4FF1E02F353F0789F6E5C05EEF64
:100A50008091E800282F30E0C90185709070892BC3
:100A6000B9F322FDDCC0342F413108F030E1232FEF
:100A7000CB0106C0FC010196E491E093F100215006
:100A80002223C1F7630F711D431B5093E8004423D9
:100A9000F9F63031E9F2C3C0353061F48EEF80935E
:100AA000E8008091E80080FFFCCF862F806880936B
:100AB000E300B5C0393051F5442309F0ADC060936F
:100AC00008011092090110920A018EEF8093E8004C
:100AD00088E591E021E02093E900FC010196E49192
:100AE000E093EB00EE2369F0AC014F5F5F4FFC0138
:100AF00084918093EC00CA010196FA0134913093FD
:100B0000ED002F5F253039F78EE181C0383061F478
:100B1000403809F081C08091E80080FFFCCF8091CF
:100B200008018093F10050C0313289F4413A09F054
:100B300073C08091E80080FFFCCFE0E0F1E081919C
:100B40008093F10081E0E730F807C9F73DC030320B
:100B5000A1F4413209F060C08091E80082FFFCCF2F
:100B6000E0E0F1E08091F100819381E0E730F80767
:100B7000C9F78BEF8093E80027C0323251F441323D
:100B800009F04AC0609309018091E80080FFFCCF22
:100B90001BC03323E9F48091E80080FFFCCF42388A
:100BA00011F080E00DC0A093E9008091EB0090E08F
:100BB00025E0969587952A95E1F781701092E900D6
:100BC0008093F1001092F1008EEF8093E80027C02F
:100BD000313011F0333001F54230F1F4672BE1F49C
:100BE0002A2F2F77822F81508430B0F48EEF80939C
:100BF000E8002093E900333079F089E18093EB003D
:100C000081E090E002C0880F991F2A95E2F7809357
:100C1000EA001092EA0003C081E28093EB00FF91AA
:100C2000EF91BF91AF919F918F917F916F915F9164
:100C30004F913F912F911F910F910F900FBE0F90E9
:100C40001F9018951F93CF93DF93EC01FE0121961F
:100C50001491112349F01A3019F48DE00E94A0027A
:100C6000812F0E94A002F2CFDF91CF911F910895B2
:100C7000982F8A3010F087E301C080E3890F0E942B
:100C8000A00208951F93182F82958F700E94380636
:100C9000812F8F700E9438061F9108951F93182F7F
:100CA000892F0E944206812F0E9442061F910895BB
:100CB000CF93DF93EC0160E177E20E94A806662300
:100CC00011F420E005C0862F805D0E94A00221E083
:100CD000CE0160E177E20E94A80668EE73E00E9410
:100CE000A806662311F4222329F0862F805D0E9436
:100CF000A00221E0CE0168EE73E00E94A80664E63F
:100D000070E00E94A806662311F4222329F0862FA2
:100D1000805D0E94A00221E0CE0164E670E00E94A6
:100D2000A8066AE070E00E94A806662311F4222358
:100D300021F0862F805D0E94A002CE016AE070E063
:100D40000E94A806805D0E94A002DF91CF910895C5
:100D5000AA1BBB1B51E107C0AA1FBB1FA617B707E1
:100D600010F0A61BB70B881F991F5A95A9F78095FD
:0C0D70009095BC01CD010895F894FFCFD0
:080D7C0000E100000000080086
:00000001FF
